:020000040800F2
:100000009805002049010008C3230008B721000813
:10001000C123000877090008D12B00080000000068
:10002000000000000000000000000000ED230008B8
:100030007909000800000000C5230008C924000851
:100040006301000863010008630100086301000800
:1000500063010008630100086301000863010008F0
:1000600063010008630100087D09000863010008BE
:1000700063010008630100086301000863010008D0
:1000800063010008630100086301000863010008C0
:10009000630100086301000863010008150A0008F5
:1000A00063010008630100086301000863010008A0
:1000B000630100086301000865250008630100086A
:1000C0006301000863010008630100086301000880
:1000D00063010008C52B00086301000863010008E4
:1000E0006301000863010008630100086301000860
:1000F0006301000863010008630100086301000850
:10010000630100086301000871250008630100080D
:10011000630100086301000863010008630100082F
:10012000630100086301000863010008630100081F
:10013000DFF810D000F0ACFB00480047C1340008E5
:10014000AFF3008098050020064880470648004726
:10015000FEE7FEE7FEE7FEE7FEE7FEE7FEE7FEE777
:10016000FEE7FEE71D25000831010008202A04DB18
:10017000203A21FA02F00021704721FA02F3D04020
:10018000C2F120029140084319467047D2B201E003
:1001900000F8012B491EFBD270470022F6E710B58C
:1001A00013460A4604461946FFF7F0FF204610BDE5
:1001B00070B5064602F01EFD046805460A220021BD
:1001C000304600F069FA2C6070BD2DE9FE4F804684
:1001D00081EA0300C00F0C46009021F0004123F09B
:1001E0000045B8EB0200A94105D2404621469046A1
:1001F0001C460B46024623F00040104347D0270D13
:10020000C7F30A00C3F30A510290401A0190402834
:100210006BDAC3F3130040F4801B0098924620B1C0
:100220000023D2EB030A63EB0B0B01985946C0F194
:100230004002504600F00FFA06460D465046594619
:10024000019A00F017FA10EB08006141002487EAD8
:10025000115284EAE7731A4340D0009A62B3019ABC
:10026000012A4FEA075215DC001B61EB02014FF037
:10027000004202EA0752CDE90042001C41F580111C
:1002800032462B4600F086FA03B0BDE8F08F4046B8
:100290002146F9E7001B61EB0201001C41F58013C8
:1002A00000185B412018A2F5001747EB030140EA54
:1002B000D570B6196D4111E06D084FEA360645EA72
:1002C000C0754FEA0752001B61EB0201001C41F5AB
:1002D000801149084FEA30000019514132462B463F
:1002E00003B0BDE8F04F00F046BA0098012240008C
:1002F0000023D0EB020263EBE073009821464FEA43
:10030000E074B8EB000061EB0401E9E783F000431F
:100310005BE781F0004158E72DE9FE4F81EA0304D5
:1003200004F0004421F0004100944FF0000B23F052
:10033000004350EA01045ED052EA03045BD0C3F3E9
:100340000A54C1F30A552C44A4F2F3340194A0FBDF
:100350000254C1F3130141F48011C3F3130343F4B6
:10036000801301FB024400FB034E840A970A44EA0F
:10037000815447EA8357A4FB076802958D0A05FB61
:1003800007854FEA932C04FB0C542705029D4FEA86
:10039000065847EA1637B5EB08056EEB070C870ED3
:1003A000920E47EA811742EA8312A7FB0201B6EBDD
:1003B0000B0164EB00042B0D43EA0C335E1844EB95
:1003C0001C50DA465146E7FB0201C5F313044FEA1D
:1003D0000B3343EA14534FEA0432019C43EA060309
:1003E000A4F10C040294009CCDE900B400F0D2F911
:1003F00003B0BDE8F08F00200146F9E72DE9F04D8C
:1004000081EA030404F0004B21F0004514464FF04C
:10041000000A23F0004150EA050220D054EA01020C
:100420001DD0C5F30A570246C5F31303C1F31300E9
:10043000C1F30A5640F4801543F48013A7EB060875
:10044000101BD64608F2FD3873EB050002D308F105
:10045000010801E092185B41B8F1000F03DA0020B7
:100460000146BDE8F08D00204FF480110646844619
:100470000EE0171B73EB050705D3121B63EB050397
:1004800006434CEA010C49084FEA300092185B41E0
:1004900050EA0107EDD152EA030012D082EA0400CB
:1004A00083EA0501084305D0101BAB4106D20122A7
:1004B000002306E000224FF0004302E06FF001024B
:1004C00053101AEB06004CEB085110EB0A0041EBFD
:1004D0000B01BDE8F04D00F04EB9C10F80EAE070AD
:1004E0000844CA079623002100F017B90EB5C10FC2
:1004F00080EAE0700844CA07002140F233438DE8E7
:100500000E000A460B4600F045F903B000BD00F0AE
:10051000004220F00040C10DC0F3160040F400007E
:100520007F2901DA00207047962903DCC1F196018A
:10053000C84001E096398840002AF4D04042704714
:1005400000F0004230F000400AD0C10D01F56071AA
:10055000C0F3160042EA0151C20840071143704738
:1005600000200146704701F0004330B421F0004103
:1005700050EA010206D00A0DA2F56072C1F3130120
:10058000002A02DC30BC00207047440F44EAC1045A
:10059000C100E01830BC00EBC25000F0B5B800005C
:1005A000002801DBC0F10040002901DBC1F100415E
:1005B00081427047002801DBC0F10040002901DBC7
:1005C000C1F100418842704730B50B46014600201A
:1005D0002022012409E021FA02F59D4205D303FA05
:1005E00002F5491B04FA02F52844151EA2F1010286
:1005F000F1DC30BD2DE9F05F0546002092469B46B8
:1006000088460646814640241BE028464146474628
:100610002246FFF7ABFD53465A46C01A914110D30C
:1006200011461846224600F016F82D1A67EB01080D
:100630004F4622460120002100F00DF817EB00097B
:100640004E41201EA4F10104DFDC484631462A4613
:100650004346BDE8F09F202A04DB203A00FA02F16D
:10066000002070479140C2F1200320FA03F31943A0
:1006700090407047202A06DBCB17203A41FA02F05F
:1006800043EAE07306E041FA02F3D040C2F12002EF
:1006900091400843194670472DE9F04791460F46AF
:1006A00080460446002614F8015B2DB100F002F9E3
:1006B0000068405DC007F6D12B2D02D02D2D18D03B
:1006C000641E4A463946204600F0F8F827B13968DA
:1006D000A14201D1C7F8008071054FF002040BD58B
:1006E0004042002803DD02F085FA0460A007BDE85F
:1006F000F08746F48066E4E70028F8DA02F07AFA38
:1007000004606FF00040F2E70029A8BF7047401C6A
:10071000490008BF20F00100704710B4B0FA80FC17
:1007200000FA0CF050EA010404BF10BC704749B154
:10073000CCF1200421FA04F411FA0CF118BF0121C4
:1007400021430843A3EB0C01CB1D4FEA00614FEAA4
:10075000102042BF002010BC704700EBC350104473
:100760000029A4BF10BC7047401C490008BF20F0FE
:10077000010010BC704710B5141E73F1000408DAB4
:10078000401C41F1000192185B411A4301D120F055
:10079000010010BD2DE9F04D92469B4611B1B1FA12
:1007A00081F202E0B0FA80F220329046FFF753FF68
:1007B00004460F4640EA0A0041EA0B0153465A46F6
:1007C000084313D0114653EA010019D0C8F1400282
:1007D0005046FFF7CBFC05460E465046594642466A
:1007E000FFF739FF084305D0012004E020463946D1
:1007F000BDE8F08D0020054346EAE0762C43374300
:100800000A986305E40AA0EB08000022FD0A44EA06
:1008100047540A3002D500200146E9E701051019C6
:100820006941DDE9084500196941BDE8F04DA2E7DD
:10083000C1F30A52C1F3130140F2FF3341F48011B6
:100840009A4202DA00200146704740F233439A424E
:10085000A2F2334202DC5242FFF788BCFFF7FBBE34
:1008600030B5041E71F1000404DB4FF00044404237
:1008700064EB0101141E73F1000405DB1C464FF00C
:100880000043524263EB0403994208BF904230BDDB
:10089000064C074D06E0E06840F0010394E80700CD
:1008A00098471034AC42F6D3FFF746FCDC3500081D
:1008B000FC35000800487047D83500082DE9F05F86
:1008C00082460078002715468B460AF10104B94696
:1008D000302801D09DB113E014F8010B01277828CE
:1008E00003D0582801D045B10AE00DB1102D07D131
:1008F0000027102514F8010B02E0082500E00A2566
:100900000026B0460EE005FB080005FB06F10127B6
:1009100001EB10461FFA80F8B6F5803F00D3B946C8
:1009200014F8010B294600F018F80028EBDABBF1A7
:10093000000F05D00FB1641E00E05446CBF8004014
:10094000B9F1000F06D002F055F902210160C81E6E
:10095000BDE8F09F48EA0640FAE73A2800D230386E
:1009600020F02002412A01D3A2F13700884201D3AE
:100970004FF0FF307047FEE77047000070B5234D21
:100980001021284600F060FA40EA4404402128463D
:1009900000F05AFA40EA440010F003011C4806D067
:1009A00001291BD002291DD0032909D11EE082781C
:1009B000012A02D10289521C01E00289521E0281E1
:1009C0008170418A491C4182B0F908200021B2F5AA
:1009D0007A6F0FDB0181C169491C11E08278032A1B
:1009E000EBD1E7E78278002AE7D1E3E78278022AB1
:1009F000E3D1DFE712F57A6F03DC0181C169491E9B
:100A0000C161BDE87040102000F00CB9000C01403D
:100A10000000002070B5234D1021284600F014FA84
:100A200040EA44044021284600F00EFA40EA44001F
:100A300010F003011C4806D001291BD002291DD04B
:100A4000032909D11EE08278012A02D10289521CB1
:100A500001E00289521E02818170418A491C418253
:100A6000B0F908200021B2F57A6F0FDB0181C1696E
:100A7000491C11E08278032AEBD1E7E78278002A4B
:100A8000E7D1E3E78278022AE3D1DFE712F57A6F54
:100A900003DC0181C169491EC161BDE8704040208D
:100AA00000F0C0B8000C0140000000202DE9F05F0C
:100AB000002490F82110022903D00421816301242D
:100AC00090E001680A6822F00E020A6001680A6874
:100AD00022F001020A60454A0168454BDFF814C163
:100AE000454D464E464FDFF81C81DFF81C91DFF87C
:100AF0001CA1DFF81CB1DFF81CE1914232D9994208
:100B000001D101212BE0614501D1102127E0A9424B
:100B100002D14FF4807122E0B14202D14FF48051F2
:100B20001DE0B94202D14FF4803118E0414502D1B5
:100B30004FF4801113E0494501D101210FE05145E7
:100B400001D110210BE0594502D14FF4807106E02C
:100B5000714502D14FF4805101E04FF480312E4AAB
:100B6000116036E0994201D1012130E0614501D1A7
:100B700010212CE0A94202D14FF4807127E0B1424C
:100B800002D14FF4805122E0B94202D14FF48031BA
:100B90001DE0414502D14FF4801118E0914202D18D
:100BA0004FF0807113E0494501D101210FE051451B
:100BB00001D110210BE0594502D14FF4807106E0BC
:100BC000714502D14FF4805101E04FF48031134A56
:100BD0005160012180F82110002180F82010416B24
:100BE00001B188472046BDE8F09F00008000024028
:100BF000080002401C000240300002404400024055
:100C0000580002406C000240080402401C040240EC
:100C10003004024044040240040402400000024048
:100C20007047000010B504490A68024202D008600B
:100C3000FFF7F6FF10BD0000140401402DE9F84F46
:100C400000239C46DFF8F4810F2708F1040909F11D
:100C5000040A0AF1040B012202FA0CF60A68324077
:100C6000B2427CD1DFF8D8E14C68A4EB0E057445A4
:100C70002BD00DDC032C34D005DC34B3012C19D07F
:100C8000022C2FD11BE0112C16D0122C2AD119E0E6
:100C9000B5F5881F19D006DCB5F5803F15D0B5F540
:100CA000801F1FD111E0B5F5001F0ED0B5F5041F50
:100CB00018D10AE0CB6815E0CB681B1D12E0CB68A9
:100CC00008330FE0CB680C330CE08B6823B1012BA9
:100CD00004D00823466105E0042303E008230661ED
:100CE00000E00023B2F5807F01D2054601E000F16B
:100CF000040502D24FEA8C0403E0ACF108044FEA89
:100D000084042E6807FA04FE26EA0E0603FA04F4A9
:100D100046EA04042C604C6814F0805F1FD0494CF4
:100D2000A56945F00105A561A46904F001040094DA
:100D30002CF0030404F1804404F58034A6684FEAE3
:100D40008C754FEA157507FA05FE26EA0E0EA0F11E
:100D50008046B6F584362AD0A0F1804600E065E0F2
:100D6000B6F5863625D0A0F18046B6F5883622D075
:100D7000A0F18046B6F58A361FD0A0F18046B6F5C0
:100D80008C361CD0A0F18046B6F58E3619D00626DA
:100D900006FA05F545EA0E05A5604C6814F4803F97
:100DA00011D0D8F800401443C8F8004010E00026E5
:100DB000EEE70126ECE70226EAE70326E8E7042649
:100DC000E6E70526E4E7D8F800409443C8F8004079
:100DD0004C6814F4003F05D0D9F800401443C9F81A
:100DE000004004E0D9F800409443C9F800404C6842
:100DF00014F4801F05D0DAF800401443CAF800400C
:100E000004E0DAF800409443CAF800404C6814F457
:100E1000001F05D0DBF800402243CBF8002005E09E
:100E2000DBF8004024EA0202CBF800200CF1010CB0
:100E3000BCF1100FFFF40FAFBDE8F88F00040140C4
:100E400000001110001002408068084201D001200B
:100E5000704700207047002A01D0016170470904E3
:100E60000161704701488068704700003000002031
:100E70000248816802781144816070473000002088
:100E800010B50748016841F010010160032000F02F
:100E900089F8002000F006F800F026F8002010BDC8
:100EA0000020024070B504460D4D4FF47A71287849
:100EB000B1FBF0F00B490968B1FBF0F000F0C4FBA6
:100EC00008B1012070BD102C07D200222146501E0F
:100ED00000F034F86C60002070BD012070BD00008F
:100EE000300000202C0000200C4808B5816941F03A
:100EF00001018161816901F001010091C16941F045
:100F00008051C161C06900F0805000900448416880
:100F100021F0E06141F00071416008BD0010024025
:100F20000000014000F01F01012202FA01F1400916
:100F3000800000F1E020C0F80011704710B4184B99
:100F40001B68C3F30223C3F1070CBCF1040F01D9E2
:100F50004FF0040C1C1D072C01D2002300E0DB1E07
:100F6000012404FA0CFCACF1010C0CEA01019940DB
:100F700004FA03F35B1E1A401143002808DA00F05C
:100F80000F0000F1E020090180F8141D10BC70472B
:100F900000F1E020090180F8001410BC7047000047
:100FA0000CED00E000F00700064A11684FF6FF0361
:100FB000194041EA002040F0FD7040F08060106070
:100FC000704700000CED00E02DE9F04704460D46A7
:100FD000DFF8A081D8F8000000F00700A8420FD287
:100FE000D8F8000020F007002843C8F80000D8F81F
:100FF000000000F00700A84202D00120BDE8F08701
:1010000020685D4F10F0020F14D010F0040F03D0D1
:10101000786840F4E0607860207810F0080F03D022
:10102000786840F4605078607868A16820F0F0003B
:1010300008437860207810F0010F5FD060680128C5
:1010400006D002280BD0396811F0020F29D00AE02F
:10105000396811F4003F06D10120BDE8F0873968F6
:1010600011F0007F1AD0796821F0030108437860FD
:10107000FFF7F8FE0646606841F28839012813D070
:10108000022824D0786810F00C0F37D0FFF7EAFE62
:10109000801B48452ED90320BDE8F0870120BDE81C
:1010A000F0870120BDE8F087786800F00C00042884
:1010B00024D0FFF7D7FE801B484502D90320BDE8A6
:1010C000F087786800F00C000428F2D116E0786808
:1010D00000F00C00082811D0FFF7C4FE801B484523
:1010E00002D90320BDE8F087786800F00C000828DA
:1010F000F2D103E0786810F00C0FC7D1D8F80000E7
:1011000000F00700A8420FD9D8F8000020F007002F
:101110002843C8F80000D8F8000000F00700A842F3
:1011200002D00120BDE8F087207810F0040F05D030
:101130007868E16820F4E06008437860207810F077
:10114000080F06D07868216920F4605040EAC10099
:10115000786000F03DF87968084AC1F30311515CEA
:10116000C840074908600020FFF79CFE0020BDE84A
:10117000F087000000200240001002403C350008CB
:101180002C00002001480068704700002C0000205F
:1011900000B5FFF7F7FF04494968044AC1F302218B
:1011A000515CC84000BD0000001002404C350008F2
:1011B00000B5FFF7E7FF04494968044AC1F3C221BB
:1011C000515CC84000BD0000001002404C350008D2
:1011D00085B015A0836842680168C06803930292D5
:1011E0000191049014A000680090144B59681448B1
:1011F00001F00C02042A11D0082A0FD101A8C1F372
:101200008342805C11F4803F0AD05968C1F34041A9
:101210001DF801100A4A5043B0FBF1F005B07047C9
:10122000084905B04843704702030405060708094A
:101230000A0B0C0D0E0F10100102000000100240EE
:1012400000127A0000093D002DE9F84F0446FA4DDE
:10125000207810F0010F68D0686800F00C000428B6
:1012600008D0686800F00C0008280DD1686810F4F8
:10127000803F09D0286810F4003F56D060680028ED
:1012800053D10120BDE8F88F6068B0F5803F15D0DC
:10129000C8B1B0F5A02F1FD0286820F48030286096
:1012A000286820F480202860606858B3FFF7DAFDD2
:1012B0000646286810F4003F17D036E0286840F44E
:1012C00080302860F0E7286820F4803028602868A3
:1012D00020F480202860E7E7286840F48020286018
:1012E000286840F480302860DEE7FFF7BBFD801BF4
:1012F000642802D90320BDE8F88F286810F4003F65
:10130000F3D012E0FFF7AEFD0646286810F4003F68
:101310000BD0FFF7A7FD801B642802D90320BDE88E
:10132000F88F286810F4003FF3D12078C34F10F0F5
:10133000020F4FF0010B4FF0000854D0686810F016
:101340000C0F14D0686800F00C00082803D16868FE
:1013500010F4803F0BD0206978B3C7F800B0FFF7D6
:1013600081FD0646286810F0020F12D01DE02868A3
:1013700010F0020F05D02069012802D00120BDE83D
:10138000F88F2868616920F0F80040EAC100286001
:1013900029E0FFF767FD801B022802D90320BDE882
:1013A000F88F286810F0020FF3D02868616920F0E8
:1013B000F80040EAC100286015E0FFE7C7F80080A8
:1013C000FFF750FD0646286810F0020F0BD0FFF71C
:1013D00049FD801B022802D90320BDE8F88F286848
:1013E00010F0020FF3D1207810F0080F30D094489D
:1013F000A169C1B1C0F800B0FFF734FD0646686AC4
:1014000010F0020F0BD1FFF72DFD801B022802D92F
:101410000320BDE8F88F686A10F0020FF3D00120B6
:1014200000F0D2FF14E0C0F80080FFF71BFD064675
:10143000686A10F0020F0BD0FFF714FD801B022822
:1014400002D90320BDE8F88F686A10F0020FF3D1CB
:10145000207810F0040F6FD00026E86910F0805F4C
:1014600008D1E86940F08050E861E86900F08050F8
:1014700000900126DFF8CCA1DAF8000010F4807F9C
:101480001BD1DAF8000040F48070CAF80000FFF7C2
:10149000E9FC8146DAF8000010F4807F0DD1FFF7F7
:1014A000E1FCA0EB0900642802D90320BDE8F88F15
:1014B000DAF8000010F4807FF1D0E068012816D03F
:1014C000D0B1052821D0286A20F001002862286ABE
:1014D00020F004002862E06841F2883A68B3FFF720
:1014E000C1FC8146286A10F0020F17D03AE0286A42
:1014F00040F001002862EEE7286A20F0010028622F
:10150000286A20F004002862E5E7286A40F0040019
:101510002862286A40F001002862DCE7FFF7A2FC9D
:10152000A0EB0900504502D90320BDE8F88F286AD6
:1015300010F0020FF2D015E01AE0FFE7FFF792FC7F
:101540008146286A10F0020F0CD0FFF78BFCA0EB4D
:101550000900504502D90320BDE8F88F286A10F031
:10156000020FF2D1012E03D1E86920F08050E8612A
:10157000E069E8B3696801F00C01082958D0022835
:1015800010D0C7F86080FFF76DFC0446286810F0A3
:10159000007F4AD0FFF766FC001B022841D90320D8
:1015A000BDE8F88FC7F86080FFF75CFC0646286846
:1015B00010F0007F0BD0FFF755FC801B022802D9EA
:1015C0000320BDE8F88F286810F0007FF3D1206A6F
:1015D000B0F5803F05D16868A16820F40030084369
:1015E0006860616A206A0843696821F4741100E048
:1015F0001BE008436860C7F860B0FFF733FC04469F
:10160000286810F0007F10D1FFF72CFC001B022887
:1016100002D90320BDE8F88F286810F0007FF3D0CE
:1016200003E0286810F0007FB4D10020BDE8F88FF7
:101630000120BDE8F88F0000001002400000424287
:101640008004424200700040401EB0F1807F01D310
:10165000012070474FF0E0214861044AF0201070EB
:1016600000208861072008610020704723ED00E01A
:101670007047704710B490F83C20012A2AD001230B
:1016800080F83C30022280F83D200268D2F804C085
:101690002CF0700CC2F804C00268D2F804C00C68C8
:1016A0004CEA040CC2F804C00268D2F808C02CF05E
:1016B000800CC2F808C00268D2F808C049684CEA39
:1016C0000101916080F83D30002180F83C1010BC91
:1016D0000020704710BC0220704710B50446002C53
:1016E00003D094F83D0010B107E0012010BD0020A8
:1016F00084F83C00204600F00DF8022084F83D00FC
:10170000211D206800F03AFF012084F83D000020F0
:1017100010BD000008B5154A0168154891420ED168
:10172000C16941F00401C161C069002200F00400F8
:10173000009011461E20FFF701FC1E2010E00D4A0C
:10174000914211D1C16941F00801C161C069002213
:1017500000F00800009011463220FFF7EFFB322026
:10176000BDE80840FFF7DEBB08BD000000080040F0
:1017700000100240000C00400168CA6842F00102FB
:10178000CA600068016841F00101016000207047F3
:1017900070B5044694F83C00012818D0012584F85F
:1017A0003C50022084F83D002068826822F07702D5
:1017B00022F47F428260086850283AD00EDC20284C
:1017C0005FD006DC002852D0102863D154E00220FC
:1017D00070BD30285AD040285CD13EE0602832D01D
:1017E00070280CD0B0F5805F03D0B0F5005F51D108
:1017F00013E02068816821F0070181604AE0CB682E
:101800004A688968206800F00EFF2068816821F02E
:10181000770141F0770181603CE0CB684A688968D4
:10182000206800F000FF2068816841F480418160F9
:1018300030E0CA684968206800F0E4FF5021206861
:1018400000F0FCFE26E0CA684968206800F0EDFF61
:101850006021206800F0F2FE1CE0CA684968206838
:1018600000F0D0FF4021206800F0E8FE12E00021E7
:10187000206800F0E3FE0DE01021206800F0DEFE9D
:1018800008E02021206800F0D9FE03E03021206824
:1018900000F0D4FE84F83D50002084F83C0070BD78
:1018A000704770B50446206801694FF0000511F0DB
:1018B000020F17D0C16811F0020F13D0E91E0161A9
:1018C000012020772068806910F0030F03D02046A4
:1018D000FFF7E6FF05E0204600F0ECF8204600F0B8
:1018E00093F925772068016911F0040F18D0C168B9
:1018F00011F0040F14D06FF0040101610220207771
:101900002068806910F4407F03D02046FFF7C8FFAD
:1019100005E0204600F0CEF8204600F075F9257766
:101920002068016911F0080F18D0C16811F0080F84
:1019300014D06FF008010161042020772068C0698D
:1019400010F0030F03D02046FFF7AAFF05E0204662
:1019500000F0B0F8204600F057F9257720680169BB
:1019600011F0100F18D0C16811F0100F14D06FF0E3
:1019700010010161082020772068C06910F4407FC1
:1019800003D02046FFF78CFF05E0204600F092F8D8
:10199000204600F039F925772068016911F0010F20
:1019A00009D0C16811F0010F05D06FF0010101618C
:1019B000204600F047F92068016911F0800F09D036
:1019C000C16811F0800F05D06FF0800101612046E1
:1019D000FFF74EFE2068016911F0400F09D0C16881
:1019E00011F0400F05D06FF040010161204600F07A
:1019F000D9F92068016911F0200F0BD0C16811F0EE
:101A0000200F07D06FF0200101612046BDE8704033
:101A1000FFF72FBE70BD000010B586B00021009109
:101A200001910291039102681D4802211D4CB2F1FF
:101A3000804F1CD01C4B9A4217D1826942F0100291
:101A400082618069039100F0100004908020CDE94C
:101A5000000169461548FFF7F1F8606820F440601E
:101A600040F0E06040F44060606006B010BD826904
:101A700042F0080282618069039100F0080004903E
:101A80004FF48060CDE9000169460948FFF7D6F8B8
:101A9000606820F4407040F0E06040F40070E3E7DC
:101AA000001002400000014000040040001001400E
:101AB000000C0140704770B504460D4694F83C0098
:101AC00001280DD0012684F83C60022084F83D00F6
:101AD00042B1042A1AD0082A2DD00C2A53D13EE054
:101AE000022070BD2946206800F0B0FD20688169A1
:101AF00041F0080181612068816921F00401816160
:101B0000206881692A69114381613CE02946206887
:101B100000F0D4FD2068816941F400618161206892
:101B2000816921F480618161206881692A6941EAC3
:101B30000221816127E02946206800F0FBFD206832
:101B4000C16941F00801C1612068C16921F0040147
:101B5000C1612068C1692A691143C16113E0294646
:101B6000206800F023FE2068C16941F40061C16172
:101B70002068C16921F48061C1612068C1692A6956
:101B800041EA0221C16184F83D60002084F83C00F4
:101B900070BD10B50446002C03D094F83D0010B180
:101BA00007E0012010BD002084F83C00204600F032
:101BB0000DF8022084F83D00211D206800F0DEFCB5
:101BC000012084F83D00002010BD000008B5016828
:101BD0000B48B1F1804F0BD00A4A914207D1C1693D
:101BE00041F00201C161C06900F00200009008BD2F
:101BF000C16941F00101C161C06900F00100F5E770
:101C00000010024000040040704710B50446012255
:101C1000206800F0FBFC2168A1F18040B0F596300F
:101C200004D0A1F18040B0F59A3003D1486C40F463
:101C3000004048642068016841F001010160002013
:101C400010BD00002DE9F047006849490025494CC6
:101C500088425AD1B4F90800FEF748FCDFF8188131
:101C6000DFF8189142464B46FEF756FB0022444BE4
:101C7000FEF7C4FB0646E0690F464000FEF736FC5F
:101C800042464B46FEF748FB32463B46FEF79DFA7E
:101C9000FEF769FC0646A061608A2062658200EB5F
:101CA00040016181FEF722FC42464B46FEF734FBC1
:101CB0000022344BFEF7A2FBFEF755FC0246A06261
:101CC00021462079496A012804D0022806D0042838
:101CD00008D10DE0304600F0AFFB02E0304600F0E6
:101CE000CFFBE07061792848284D29B1012204E03A
:101CF000304600F07DFBF4E700220821FFF7ABF847
:101D00002968E0788863BDE8F08721498842FAD1E4
:101D10002078401CC1B22170607828B3B4F90C005F
:101D2000B0F5AA7F01DC01200BE0A0F25512B2F55C
:101D3000CC7F01D8022004E040F2EE22904201DB89
:101D4000042020710529DED12570B4F90A1011A0F4
:101D500000F040FFA069FEF7F3FBBDE8F047024644
:101D60000B460EA000F036BFE5702571CBE70000F2
:101D700000080040000000206F1283C0CA21094003
:101D800000409F40000024400010014084000020DB
:101D9000000C00405625640D200A00005025660DF9
:101DA000200A00007047704710B50446226810688A
:101DB000D168526900F00F03002B0AD110F0200FF8
:101DC00007D011F0200F04D02046BDE8104000F0ED
:101DD00061BD002B6BD002F0010301F4907C53EA4B
:101DE0000C0364D010F0010F06D011F4807F03D0F3
:101DF000E36B43F00103E36310F0040F06D012F02D
:101E0000010F03D0E36B43F00203E36310F0020F12
:101E100006D012F0010F03D0E36B43F00403E36339
:101E200010F0080F06D012F0010F03D0E26B42F061
:101E30000802E263E26B002A2ED010F0200F05D0DA
:101E400011F0200F02D0204600F024FD20684069E8
:101E5000C0F38010E16B11F0080F00D108B32046E9
:101E600000F0FDFC2068416911F0400F15D0416978
:101E700021F040014161606B58B118494163606BCA
:101E8000FEF714FE002807D0606B416BBDE81040E0
:101E900008472046FFF787FF10BD2046FFF783FF66
:101EA00010BD2046FFF77FFF0020E06310BD10F05B
:101EB000800F07D011F0800F04D02046BDE81040FD
:101EC00000F010BE10F0400FF0D011F0400FEDD038
:101ED0002046BDE8104000F0D0BC00004F280008AC
:101EE00070B50446002C04D094F83900002510B1D8
:101EF00006E0012070BD84F83850204600F022F83A
:101F0000242084F839002068C16821F40051C160A0
:101F1000204600F00DFD2068016921F49041016127
:101F20002068416921F02A0141612068C16841F4BB
:101F30000051C160E563202084F8390084F83A003C
:101F4000002070BD30B585B0002400940194029447
:101F500003940068184988422CD11848816941F4DB
:101F600080418161816901F480410491816941F07E
:101F7000040181618069124D00F0040004904FF467
:101F800000700090022001900320039069462846CB
:101F9000FEF754FE2815CDE9000469462846029450
:101FA000FEF74CFE002211462520FEF7C7FF252034
:101FB000FEF7B8FF05B030BD003801400010024008
:101FC0000008014090F83A30202B01D002207047E1
:101FD000F9B1F2B190F83830012B1CD081628285C2
:101FE000C2850021C163222280F83A2080F838108F
:101FF0000168CA6842F48072CA6001684A6942F0A6
:1020000001024A610068C16841F02001C1600020FE
:1020100070470120704702207047000070B50068CB
:102020002A49884251D12A4C2A4A0025A17929B946
:1020300000201554401CC0B21428FAD32448143090
:102040000078362832D00ADCA0F12D03092B33D2D8
:10205000DFE803F02C2C322C2C2C2C2C2C006528A7
:102060000ED006DC372821D038281FD0392823D1BC
:102070001CE0722806D0732807D076281CD10BE00C
:10208000657019E00120607016E01248FEF790F8C4
:10209000FEF723FA606203E00E48FEF789F8A0819C
:1020A00014210C48FEF779F8A57105E00A44491C93
:1020B000A1711178014311700549BDE870400548D0
:1020C000012214314038FFF77DBF70BD0038014058
:1020D00000000020840100202DE9F84304460D464D
:1020E00091461E4694F83900202802D00220BDE80F
:1020F000F8834DB3B9F1000F26D094F838000128C9
:1021000025D0012084F838000027E763212084F8D7
:102110003900FEF7A7FE8046A4F82490A4F8269084
:10212000E08CA0B3E08C401EE084A068B0F5805F36
:1021300010D04346002280212046009600F005FD85
:10214000F0B10320BDE8F8830120BDE8F883022048
:10215000BDE8F8834346002280212046009600F027
:10216000F4FC10B10320BDE8F88328882168C0F38F
:1021700008004860206908B16D1C05E0AD1C03E053
:10218000216815F8010B4860E08C0028CAD143464D
:10219000002240212046009600F0D7FC10B1032019
:1021A000BDE8F883202084F8390084F838700020D6
:1021B000BDE8F8837047FEE770B586B00024244878
:1021C0000094019402940394816941F010018161AB
:1021D000816901F010010491816941F00801816178
:1021E000816901F008010491816941F00401816174
:1021F0008069184E00F00400049000220821304647
:10220000FEF729FE08200125CDE900050220CDE9D1
:10221000024069463046FEF711FD502000900E48FE
:10222000CDE9010569460D48FEF708FD002211467B
:102230000A20FEF783FE0A20FEF774FE00221146F4
:102240001720FEF77BFE1720FEF76CFE06B070BD70
:10225000001002400010014000003110000C01404D
:1022600010B58AB0002407941C2168460894FDF735
:1022700094FF11484FF0804101600B21C0E9011427
:102280006421C0E903148461FFF783FC079407A964
:1022900009480894FFF7EEF96020CDE900040294A4
:1022A0000822694604480494FFF705FC0248FFF73A
:1022B000B3FB0AB010BD00004400002010B58AB086
:1022C000002407941C2168460894FDF766FF114816
:1022D0000F4901600B21C0E901146421C0E9031416
:1022E0008461FFF756FC079407A90A480894FFF792
:1022F000C1F96020CDE90004029404226946054832
:102300000494FFF7D8FB0348FFF786FB0AB010BD23
:10231000000400408400002010B586B0002412485C
:10232000009401940294039404940E49059401606E
:1023300045F6BF51C0E901140421C0E903148461CA
:10234000FFF7CBF94FF48050009069460648FFF73D
:102350001FFA049404A904480594FFF78BF906B00A
:1023600010BD000000080040C400002010B586B079
:1023700000241248009401940294039404940E499A
:102380000594016045F6BF51C0E901140921C0E977
:1023900003148461FFF7A1F94FF48050009069465F
:1023A0000648FFF7F5F9049404A904480594FFF7DB
:1023B00061F906B010BD0000000C004004010020CF
:1023C000FEE770477047000081B007494FF4FA52AA
:1023D0000968B1FBF2F14843009000BF0098411E2C
:1023E0000091FAD201B070472C0000207047000025
:1023F00070B50F4C63202946E081002020820D48F3
:10240000FEF7CEF802D2B4F90E0009E0B4F91000DC
:10241000FEF763F82946FEF7CDF804D2B4F91000B0
:10242000FEF75BF805462846BDE87040FEF76FB83A
:10243000000000200000C64270B50F4C0A2029465B
:10244000E081002020820D48FEF7AAF802D2B4F9FC
:102450000E0009E0B4F91000FEF73FF82946FEF738
:10246000A9F804D2B4F91000FEF737F8054628465B
:10247000BDE87040FEF74BB800000020000020418E
:1024800070B50F4C14202946E081002020820D48B1
:10249000FEF786F802D2B4F90E0009E0B4F9100094
:1024A000FEF71BF82946FEF785F804D2B4F91000B0
:1024B000FEF713F805462846BDE87040FEF727B83A
:1024C000000000200000A041FEF7D2BC30B58FB064
:1024D00028216846FDF761FE14210AA8FDF75DFE7C
:1024E00002240120049000941020059000254FF450
:1024F0002010CDE9085007946846FEF7A5FE0AA90A
:102500000F2081E831004FF4A0600D900E90012162
:102510000AA8FEF759FD0FB030BD00000D48016854
:1025200041F00101016041680B4A114041600168BE
:102530000A4A11400160016821F48021016041686C
:1025400021F4FE0141604FF41F0181600449C00382
:1025500008607047001002400000FFF8FFFFF6FE21
:1025600008ED00E00148FFF79CB90000C40000201E
:102570000148FFF796B9000004010020F0B402689A
:102580001D4B1E4C1E4D1F4EDFF87CC098420AD0DA
:10259000604508D0B0F1804F05D0A04203D0A842DA
:1025A00001D0B04203D122F070024F683A43984202
:1025B0000AD0604508D0B0F1804F05D0A04203D0CA
:1025C000A84201D0B04203D122F44072CC68224329
:1025D00022F080024C69224302608A68C2620A6863
:1025E0008262984201D0604501D1096901630121ED
:1025F0004161F0BC70470000002C01400004004025
:1026000000080040000C00400034014001238B40D2
:10261000D0F820C02CEA03030362036A02FA01F136
:10262000194301627047D0F808C02CF47F4C42EA8D
:102630000322114341EA0C0181607047826822F055
:102640007002114341F007018160704770B4026A63
:1026500022F001020262036A4268D0F818C02CF02E
:10266000700C2CF0030C0C6844EA0C0C23F00203F1
:102670008C6823430F4C104DA04201D0A84205D1D5
:1026800023F00803CE68334323F00403A04201D0B3
:10269000A84207D122F4807222F400724C692243CE
:1026A0008C6922434260C0F818C0496841630362E4
:1026B00070BC7047002C01400034014070B4026AC5
:1026C00022F010020262036A4268D0F818C02CF4AB
:1026D000E04C2CF4407C0C684CEA042C23F02003E2
:1026E0008C6843EA0413114C114DA04201D0A8425A
:1026F00006D123F08003CE6843EA061323F040039B
:10270000A04201D0A84209D122F4806222F40062E2
:102710004C6942EA84028C6942EA84024260C0F851
:1027200018C049688163036270BC7047002C014087
:102730000034014070B4026A22F480720262036ABB
:102740004268D0F81CC02CF0700C2CF0030C0C6804
:1027500044EA0C0C23F400738C6843EA0423114C04
:10276000114DA04201D0A84206D123F40063CE68E7
:1027700043EA062323F48063A04201D0A84209D192
:1027800022F4805222F400524C6942EA04128C690D
:1027900042EA04124260C0F81CC04968C163036287
:1027A00070BC7047002C01400034014010B4026A34
:1027B00022F480520262D0F820C04268C36923F438
:1027C000E04323F440730C6843EA04232CF4005CD8
:1027D0008C684CEA043CA0F18044B4F5963404D0F3
:1027E000A0F18044B4F59A3404D122F480424C69BB
:1027F00042EA84124260C36149680164C0F820C0A3
:1028000010BC7047036AD0F820C02CF0010CC0F84F
:1028100020C0D0F818C02CF0F00C4CEA021223F0C3
:102820000A031943826101627047036A23F01003AF
:102830000362D0F818C0036A2CF4704C4CEA0232E0
:1028400023F0A00343EA011182610162704710B5D1
:10285000406A0021C185C184FFF7A5FA10BD016857
:10286000CA6822F49072CA6001684A6922F00102C3
:102870004A61202180F83A10704710B50168CA6893
:1028800022F04002CA60202180F83910FFF792FC44
:10289000002010BD10B590F83A10222901D0022076
:1028A00010BD8168B1F5805F11D0016919B301686D
:1028B000496801F07F02816A4B1C83620A70C18DF6
:1028C000491E0904090CC1851CD0002010BD816A75
:1028D00002693AB102685268D2B20A80816A491C20
:1028E0008162ECE702685268C2F308020A80816ADA
:1028F000891C8162E3E701684A68816A4B1C836234
:102900000A70DCE70168CA6822F02002CA60016828
:10291000CA6822F48072CA6001684A6922F0010222
:102920004A61202180F83A10FFF778FB002010BDA3
:102930002DE9F041044620680169E26821F4405124
:10294000114301612169A068014360690143206866
:10295000C26822F4037222F4A0521143C1602068BD
:102960004169A26921F440711143416120685C4DC5
:102970003226A0F18041B1F59C3158D0FEF708FC19
:1029800000EBC00101EB001061688900B0FBF1F7BA
:10299000FEF7FEFB00EBC00101EB0010616889004F
:1029A000B0FBF1F0A5FB001040096FF0180148439F
:1029B00007EB800006EB0010A5FB0010400900F0BB
:1029C000F007FEF7E5FB00EBC00101EB00106168CA
:1029D0008900B0FBF1F0A5FB0010400907EB0017E0
:1029E000FEF7D6FB00EBC00101EB00106168890027
:1029F000B0FBF1F8FEF7CCFB00EBC00101EB0010DF
:102A000061688900B0FBF1F0A5FB001040096FF090
:102A10001801484308EB800006EB0010A5FB0010EE
:102A20002168C0F3431038448860BDE8F081FEF7A8
:102A3000BFFB00EBC00101EB001061688900B0FB37
:102A4000F1F7FEF7B5FB00EBC00101EB0010616888
:102A50008900B0FBF1F0A5FB001040096FF01801F0
:102A6000484307EB800006EB0010A5FB001040096F
:102A700000F0F007FEF79CFB00EBC00101EB00103B
:102A800061688900B0FBF1F0A5FB0010400907EB7D
:102A90000017FEF78DFB00EBC00101EB0010616831
:102AA0008900B0FBF1F8FEF783FB00EBC00101EBFE
:102AB000001061688900B0FBF1F0A5FB001040092F
:102AC0006FF01801484308EB800006EB0010A5FBEF
:102AD00000102168C0F3431038448860BDE8F081DD
:102AE0001F85EB5190F83910212901D00220704741
:102AF0008168B1F5805F0CD0016A4A1C02620268ED
:102B000009785160C18C491E0904090CC18410D098
:102B100019E0016A02680988C1F30801516001697E
:102B200019B1016A491C0162ECE7016A891C016262
:102B3000E8E70168CA6822F08002CA600068C168DC
:102B400041F04001C160002070472DE9F04104468A
:102B5000069D884617461E462068006838EA000031
:102B600020D00020B84227D1B5F1FF3F1CD025B1BD
:102B7000FEF778F9801BA84216D92068C16821F4B5
:102B8000D071C1602068416921F0010141612020BC
:102B900084F8390084F83A00002084F838000320D3
:102BA000BDE8F0810120DDE72068006838EA000018
:102BB00005D00020B842D7D00020BDE8F081012028
:102BC000F8E700000148FFF7EFB8000044010020DB
:102BD000FEE700000FB4054B10B503A9044A0298A4
:102BE00000F0DEF810BC5DF814FB0000A93400080A
:102BF0003C000020004870474000002002E008C868
:102C0000121F08C1002AFAD170477047002001E066
:102C100001C1121F002AFBD1704700002DE9FF5FA0
:102C200082B00021DDE90430020DDDF840B003433D
:102C300018D044F61050A2F2FF32424315141198F6
:102C400001281FD0A5EB0B00401C5FEA000A4FF0E3
:102C500000064E4FDFF83891B046504615D5CAF100
:102C6000000413E0119801244AA3012801D16FEA5E
:102C70000B010298119AC0E90031C0E9024206B086
:102C8000BDE8F09FCBF10000DFE704460021404A99
:102C9000491842EB0450CDE9001012E0E00707D0DC
:102CA00032463B4640464946FDF736FB804689465C
:102CB00032463B4610461946FDF72EFB06460F46A8
:102CC0006410002CEAD1DDE90401DDE90023BAF14A
:102CD000000F06DAFDF720FB42464B46FDF71CFBD2
:102CE00005E0FDF78BFB42464B46FDF787FB0446AC
:102CF0000E460022284BFDF7B3FD03D84FF0FF30FE
:102D0000014607E00022254B20463146FDF75DFADB
:102D1000FDF78EFD102409E0002C0ADB0A220023B7
:102D2000FDF768FC039B30321A55641E50EA01021D
:102D3000F2D1641C039AC4F111031444119A012ABC
:102D400003D0012208430DD10AE0084304D000203B
:102D50004FF0110B119072E7A3EB0B056D1E0DE008
:102D60005B4504DD4FF0000205F1010504E003DAE4
:102D70004FF00002A5F10105002AECD0029811994C
:102D8000C0E90231C0E9004579E7000000001440C5
:102D90000000F03F300000000000F0430000E03F82
:102DA0002DE9FF4F95B09A46884606460025EEE18C
:102DB000252877D100242746F94A0121039400E011
:102DC000044316F8013F203B01FA03F01042F7D10B
:102DD00030782A2811D06FF02F033078A0F130021C
:102DE000092A16D8039A44F0020402EB820203EB8C
:102DF00042021044761C0390EFE758F8042B03922C
:102E0000002A03DA504244F40054039044F00204D0
:102E1000761C30782E2816D116F8010F44F00404E1
:102E20002A280DD06FF02F023078A0F13003092B43
:102E300009D807EB870302EB4303C718761CF3E7B7
:102E400058F8047B761C30786C280FD006DC4C28B0
:102E500017D068280DD06A2814D104E0742810D047
:102E60007A280FD10DE044F400140AE044F48014F1
:102E700001E044F440147278824202D104F58014D7
:102E8000761C761C307866280BD013DC582877D057
:102E900009DC002875D04528F6D04628F4D047280C
:102EA0001AD193E118E0632835D0642879D06528D9
:102EB00012D18BE1702873D008DC6728F1D0692823
:102EC0006FD06E280DD06F2806D1ACE073282CD0BF
:102ED000752874D0782853D05246179990476D1CA6
:102EE00054E1C4F30250022809D003280DD0D8F8C9
:102EF000001004280DD00D6008F1040846E1D8F850
:102F00000010EA17C1E90052F6E7D8F800100D806A
:102F1000F2E70D70F0E718F8041B8DF800100020A0
:102F20008DF80100EB46012003E058F804BB4FF098
:102F3000FF3061074FF0000102D40DE009F10101FB
:102F40008946B9420FDA8145F8DB1BF809100029E0
:102F5000F4D108E009F1010189468142FADB1BF84E
:102F600009100029F6D103985346A0EB0907214622
:102F70003846179A00F080FA284400EB090507E06C
:102F800044E008E10DE01BF8010B52461799904709
:102F9000B9F10109F7D2534621463846179AF2E0B3
:102FA00039E00A21C4F302524FF0000B0091022ACB
:102FB00006D058F8040BC117032A09D00AE023E011
:102FC00008F1070020F00702F2E80201904605E050
:102FD00000B2C117042A01D140B2C117002906DA94
:102FE0000A460021404261EB02012D2202E0220547
:102FF00004D52B228DF80420012203E0E20701D042
:103000002022F7E7914657E00A2100E010214FF017
:10301000000B00910BE010214FF0000B44F0040472
:103020000827009103E008204FF0000B0090C4F344
:103030000252022A05D058F8040B0021032A08D0B6
:1030400008E008F1070020F00702F2E802019046CC
:1030500003E080B2042A00D1C0B24FF00009220779
:103060002AD53278702A07D0DDF800C08CF0100C19
:103070005CEA0B0C05D00EE040228DF80420012202
:1030800008E050EA010306D030238DF804308DF8B3
:10309000052002229146009B83F0080353EA0B03AC
:1030A0000AD150EA010201D1620705D530228DF81C
:1030B00004204FF001097F1E3278582A04D039A22B
:1030C0000C920CAA02920BE03BA2F9E75B46009A35
:1030D000FDF790FA0C9B9B5C029A521E02921370B1
:1030E00050EA0102F2D1029804A9081A00F1200B5B
:1030F000600702D524F4803400E001275F4502DD3B
:10310000A7EB0B0000E0002000EB0B010090039800
:103110004944401A0390E00306D453462146179AC7
:10312000039800F0A9F90544002706E001A85246DB
:10313000C05D179990476D1C7F1C4F45F6DBE0037F
:103140000CD553462146179A039800F095F905448B
:1031500004E030205246179990476D1C0099481E94
:1031600000900029F5DC08E00298029952460078A8
:10317000491C0291179990476D1CBBF10001ABF1FE
:10318000010BF1DC5BE100F065F90544761C307859
:1031900000287FF40DAE19B02846BDE8F08F00007E
:1031A000092801003031323334353637383961621D
:1031B00063646566000000003031323334353637E1
:1031C000383941424344454600000000600700D4BE
:1031D000062708F1070020F00700F0E802238046E8
:1031E00003F0004C5FEA0C0001D097A009E0200535
:1031F00001D596A005E0E00701D095A001E0AFF26F
:103200004C001390307823F0004365280CD006DC86
:10321000452809D046281DD047287FD13BE06628A5
:1032200018D067287AD136E00021112F01DB112058
:1032300000E0781CCDE9000104A90CA8FFF7EEFC22
:10324000DDE90D010C9A4FF0000B07F10109109216
:1032500000914EE04FF000400097CDE9011004A925
:103260000CA8FFF7DBFCDDE90D020C9B0F994FF07A
:10327000000B91461093009211B9791C00EB0109E3
:10328000B7EB090003D4C0F1FF3B07F10109A9EB3B
:103290000700019042E0012F00DA01270021112FE1
:1032A00001DD112000E03846CDE9000104A90CA899
:1032B000FFF7B4FCDDE90D010C9A00914FF0000B13
:1032C000B946109221070FD4009A4A4503DA914675
:1032D00001E0A9F10109B9F1010F05DD109AA9F189
:1032E0000101515C3029F4D0B84202DA10F1040F28
:1032F00003DA0121CDE9011010E0002803DC83444A
:10330000A9EB000102E0411C494500DD8946A0EB24
:103310000B00401C01904FF000400290200705D4A4
:103320000198484502DB4FF0FF30019000208DF8F6
:103330004B0002980DF14B07B0F1004F25D0022051
:103340000C902B200D90029800280CDA404202903D
:103350002D200D9007E00A210298FDF735F9303154
:10336000029007F8011D0C99481E0C900029F2DC10
:1033700002980028EFD1791E0D980870307800F07F
:10338000200040F0450007F8020D11A8C01BC01D29
:1033900002901398007800B1012000EB0901019818
:1033A00001EBE071029801440398401A401E03901B
:1033B000E00306D453462146179A039800F05CF8C0
:1033C00005441398007818B15246179990476D1C20
:1033D000E00323D553462146179A039800F04CF892
:1033E00005441BE0BBF1000F07DB0098584504DDE6
:1033F0001098179910F80B0001E0179930205246E9
:10340000904701980BF1010B401E05F10105019059
:1034100004D12E205246179990476D1CB9F1000136
:10342000A9F10109DEDC05E017F8010B52461799F6
:1034300090476D1C0299481E02900029F4DC534607
:103440002146179A03989EE62D0000002B000000ED
:10345000200000002DE9F041044600251E461746D5
:10346000880404D405E039462020B0476D1C641E52
:10347000F9D52846BDE8F0812DE9F0410446002544
:103480001E469046C80301D5302700E02027880457
:1034900004D505E041463846B0476D1C641EF9D599
:1034A0002846BDE8F081000013B564230122694677
:1034B0000248FEF711FE00981CBD000044010020E8
:1034C000FDF7DEFCFFF702F8FEF776FEFEF7C8FE1A
:1034D000FEF7F4FE164815490C2201604FF4E13165
:1034E000416000218160C160C0E904128161C16155
:1034F000FEF7F6FCFEF710FFFEF738FF08210D4837
:10350000FEF783FB0B4804214030FEF77EFB0848A2
:103510008038FEF731F906484038FEF72DF90122D0
:1035200005490348FEF74EFDFEE700000038014064
:10353000440100204400002014000020000000008E
:103540000000000001020304060708090000000053
:10355000010203040040404040404040404041419F
:103560004141414040404040404040404040404058
:1035700040404040400502020202020202020202F2
:1035800002020202022020202020202020202002EF
:10359000020202020202909090909090101010107F
:1035A000101010101010101010101010101010101B
:1035B00002020202020288888888888808080808AF
:1035C000080808080808080808080808080808087B
:1035D000020202024000000055350008FC350008D8
:1035E0000000002044000000FC2B000840360008CA
:1035F00044000020540500000C2C000800000000CE
:1036000000000000000000000000000000000000BA
:1036100000000000000000000000000000000000AA
:10362000000000000000000000A24A0401000000A9
:10363000100000000000000000000000000000007A
:0400000508000131BD
:00000001FF
